{
  "_format": "hh-sol-artifact-1",
  "contractName": "MyEpicGameLogic",
  "sourceName": "contracts/MyEpicGameLogic.sol",
  "abi": [
    {
      "inputs": [
        {
          "internalType": "string[]",
          "name": "characterNames",
          "type": "string[]"
        },
        {
          "internalType": "string[]",
          "name": "characterImageURIs",
          "type": "string[]"
        },
        {
          "internalType": "uint256[]",
          "name": "characterHp",
          "type": "uint256[]"
        },
        {
          "internalType": "uint256[]",
          "name": "defencePower",
          "type": "uint256[]"
        },
        {
          "internalType": "uint256[]",
          "name": "characterAttackDmg",
          "type": "uint256[]"
        },
        {
          "internalType": "string",
          "name": "bossName",
          "type": "string"
        },
        {
          "internalType": "string",
          "name": "bossImageURI",
          "type": "string"
        },
        {
          "internalType": "uint256",
          "name": "bossHp",
          "type": "uint256"
        },
        {
          "internalType": "uint256",
          "name": "bossAttackDamage",
          "type": "uint256"
        }
      ],
      "stateMutability": "nonpayable",
      "type": "constructor"
    },
    {
      "anonymous": false,
      "inputs": [
        {
          "indexed": true,
          "internalType": "address",
          "name": "owner",
          "type": "address"
        },
        {
          "indexed": true,
          "internalType": "address",
          "name": "approved",
          "type": "address"
        },
        {
          "indexed": true,
          "internalType": "uint256",
          "name": "tokenId",
          "type": "uint256"
        }
      ],
      "name": "Approval",
      "type": "event"
    },
    {
      "anonymous": false,
      "inputs": [
        {
          "indexed": true,
          "internalType": "address",
          "name": "owner",
          "type": "address"
        },
        {
          "indexed": true,
          "internalType": "address",
          "name": "operator",
          "type": "address"
        },
        {
          "indexed": false,
          "internalType": "bool",
          "name": "approved",
          "type": "bool"
        }
      ],
      "name": "ApprovalForAll",
      "type": "event"
    },
    {
      "anonymous": false,
      "inputs": [
        {
          "indexed": false,
          "internalType": "uint256",
          "name": "newBossHp",
          "type": "uint256"
        },
        {
          "indexed": false,
          "internalType": "uint256",
          "name": "newPlayerHp",
          "type": "uint256"
        }
      ],
      "name": "AttackComplete",
      "type": "event"
    },
    {
      "anonymous": false,
      "inputs": [
        {
          "indexed": false,
          "internalType": "address",
          "name": "sender",
          "type": "address"
        },
        {
          "indexed": false,
          "internalType": "uint256",
          "name": "tokenId",
          "type": "uint256"
        },
        {
          "indexed": false,
          "internalType": "uint256",
          "name": "characterIndex",
          "type": "uint256"
        }
      ],
      "name": "CharacterNFTMinted",
      "type": "event"
    },
    {
      "anonymous": false,
      "inputs": [
        {
          "indexed": true,
          "internalType": "address",
          "name": "from",
          "type": "address"
        },
        {
          "indexed": true,
          "internalType": "address",
          "name": "to",
          "type": "address"
        },
        {
          "indexed": true,
          "internalType": "uint256",
          "name": "tokenId",
          "type": "uint256"
        }
      ],
      "name": "Transfer",
      "type": "event"
    },
    {
      "inputs": [
        {
          "internalType": "address",
          "name": "to",
          "type": "address"
        },
        {
          "internalType": "uint256",
          "name": "tokenId",
          "type": "uint256"
        }
      ],
      "name": "approve",
      "outputs": [],
      "stateMutability": "nonpayable",
      "type": "function"
    },
    {
      "inputs": [],
      "name": "attackBoss",
      "outputs": [],
      "stateMutability": "nonpayable",
      "type": "function"
    },
    {
      "inputs": [
        {
          "internalType": "address",
          "name": "owner",
          "type": "address"
        }
      ],
      "name": "balanceOf",
      "outputs": [
        {
          "internalType": "uint256",
          "name": "",
          "type": "uint256"
        }
      ],
      "stateMutability": "view",
      "type": "function"
    },
    {
      "inputs": [],
      "name": "bigBoss",
      "outputs": [
        {
          "internalType": "string",
          "name": "name",
          "type": "string"
        },
        {
          "internalType": "string",
          "name": "imageURI",
          "type": "string"
        },
        {
          "internalType": "uint256",
          "name": "hp",
          "type": "uint256"
        },
        {
          "internalType": "uint256",
          "name": "maxHp",
          "type": "uint256"
        },
        {
          "internalType": "uint256",
          "name": "attackDamage",
          "type": "uint256"
        }
      ],
      "stateMutability": "view",
      "type": "function"
    },
    {
      "inputs": [],
      "name": "checkIfUserHasNFT",
      "outputs": [
        {
          "components": [
            {
              "internalType": "uint256",
              "name": "charId",
              "type": "uint256"
            },
            {
              "internalType": "string",
              "name": "name",
              "type": "string"
            },
            {
              "internalType": "string",
              "name": "imageURI",
              "type": "string"
            },
            {
              "internalType": "uint256",
              "name": "defence",
              "type": "uint256"
            },
            {
              "internalType": "uint256",
              "name": "remainingHealth",
              "type": "uint256"
            },
            {
              "internalType": "uint256",
              "name": "maxHealth",
              "type": "uint256"
            },
            {
              "internalType": "uint256",
              "name": "attackPower",
              "type": "uint256"
            }
          ],
          "internalType": "struct MyEpicGame.CharacterAttributes",
          "name": "",
          "type": "tuple"
        }
      ],
      "stateMutability": "view",
      "type": "function"
    },
    {
      "inputs": [],
      "name": "getAllDefaultCharacters",
      "outputs": [
        {
          "components": [
            {
              "internalType": "uint256",
              "name": "charId",
              "type": "uint256"
            },
            {
              "internalType": "string",
              "name": "name",
              "type": "string"
            },
            {
              "internalType": "string",
              "name": "imageURI",
              "type": "string"
            },
            {
              "internalType": "uint256",
              "name": "defence",
              "type": "uint256"
            },
            {
              "internalType": "uint256",
              "name": "remainingHealth",
              "type": "uint256"
            },
            {
              "internalType": "uint256",
              "name": "maxHealth",
              "type": "uint256"
            },
            {
              "internalType": "uint256",
              "name": "attackPower",
              "type": "uint256"
            }
          ],
          "internalType": "struct MyEpicGame.CharacterAttributes[]",
          "name": "",
          "type": "tuple[]"
        }
      ],
      "stateMutability": "view",
      "type": "function"
    },
    {
      "inputs": [
        {
          "internalType": "uint256",
          "name": "tokenId",
          "type": "uint256"
        }
      ],
      "name": "getApproved",
      "outputs": [
        {
          "internalType": "address",
          "name": "",
          "type": "address"
        }
      ],
      "stateMutability": "view",
      "type": "function"
    },
    {
      "inputs": [],
      "name": "getBigBoss",
      "outputs": [
        {
          "components": [
            {
              "internalType": "string",
              "name": "name",
              "type": "string"
            },
            {
              "internalType": "string",
              "name": "imageURI",
              "type": "string"
            },
            {
              "internalType": "uint256",
              "name": "hp",
              "type": "uint256"
            },
            {
              "internalType": "uint256",
              "name": "maxHp",
              "type": "uint256"
            },
            {
              "internalType": "uint256",
              "name": "attackDamage",
              "type": "uint256"
            }
          ],
          "internalType": "struct MyEpicGameLogic.BigBoss",
          "name": "",
          "type": "tuple"
        }
      ],
      "stateMutability": "view",
      "type": "function"
    },
    {
      "inputs": [
        {
          "internalType": "address",
          "name": "owner",
          "type": "address"
        },
        {
          "internalType": "address",
          "name": "operator",
          "type": "address"
        }
      ],
      "name": "isApprovedForAll",
      "outputs": [
        {
          "internalType": "bool",
          "name": "",
          "type": "bool"
        }
      ],
      "stateMutability": "view",
      "type": "function"
    },
    {
      "inputs": [
        {
          "internalType": "uint256",
          "name": "_characterIndex",
          "type": "uint256"
        }
      ],
      "name": "mintCharacterNFT",
      "outputs": [],
      "stateMutability": "nonpayable",
      "type": "function"
    },
    {
      "inputs": [],
      "name": "name",
      "outputs": [
        {
          "internalType": "string",
          "name": "",
          "type": "string"
        }
      ],
      "stateMutability": "view",
      "type": "function"
    },
    {
      "inputs": [
        {
          "internalType": "uint256",
          "name": "",
          "type": "uint256"
        }
      ],
      "name": "nftHolderAttributes",
      "outputs": [
        {
          "internalType": "uint256",
          "name": "charId",
          "type": "uint256"
        },
        {
          "internalType": "string",
          "name": "name",
          "type": "string"
        },
        {
          "internalType": "string",
          "name": "imageURI",
          "type": "string"
        },
        {
          "internalType": "uint256",
          "name": "defence",
          "type": "uint256"
        },
        {
          "internalType": "uint256",
          "name": "remainingHealth",
          "type": "uint256"
        },
        {
          "internalType": "uint256",
          "name": "maxHealth",
          "type": "uint256"
        },
        {
          "internalType": "uint256",
          "name": "attackPower",
          "type": "uint256"
        }
      ],
      "stateMutability": "view",
      "type": "function"
    },
    {
      "inputs": [
        {
          "internalType": "address",
          "name": "",
          "type": "address"
        }
      ],
      "name": "nftHolders",
      "outputs": [
        {
          "internalType": "uint256",
          "name": "",
          "type": "uint256"
        }
      ],
      "stateMutability": "view",
      "type": "function"
    },
    {
      "inputs": [
        {
          "internalType": "uint256",
          "name": "tokenId",
          "type": "uint256"
        }
      ],
      "name": "ownerOf",
      "outputs": [
        {
          "internalType": "address",
          "name": "",
          "type": "address"
        }
      ],
      "stateMutability": "view",
      "type": "function"
    },
    {
      "inputs": [
        {
          "internalType": "address",
          "name": "from",
          "type": "address"
        },
        {
          "internalType": "address",
          "name": "to",
          "type": "address"
        },
        {
          "internalType": "uint256",
          "name": "tokenId",
          "type": "uint256"
        }
      ],
      "name": "safeTransferFrom",
      "outputs": [],
      "stateMutability": "nonpayable",
      "type": "function"
    },
    {
      "inputs": [
        {
          "internalType": "address",
          "name": "from",
          "type": "address"
        },
        {
          "internalType": "address",
          "name": "to",
          "type": "address"
        },
        {
          "internalType": "uint256",
          "name": "tokenId",
          "type": "uint256"
        },
        {
          "internalType": "bytes",
          "name": "_data",
          "type": "bytes"
        }
      ],
      "name": "safeTransferFrom",
      "outputs": [],
      "stateMutability": "nonpayable",
      "type": "function"
    },
    {
      "inputs": [
        {
          "internalType": "address",
          "name": "operator",
          "type": "address"
        },
        {
          "internalType": "bool",
          "name": "approved",
          "type": "bool"
        }
      ],
      "name": "setApprovalForAll",
      "outputs": [],
      "stateMutability": "nonpayable",
      "type": "function"
    },
    {
      "inputs": [
        {
          "internalType": "bytes4",
          "name": "interfaceId",
          "type": "bytes4"
        }
      ],
      "name": "supportsInterface",
      "outputs": [
        {
          "internalType": "bool",
          "name": "",
          "type": "bool"
        }
      ],
      "stateMutability": "view",
      "type": "function"
    },
    {
      "inputs": [],
      "name": "symbol",
      "outputs": [
        {
          "internalType": "string",
          "name": "",
          "type": "string"
        }
      ],
      "stateMutability": "view",
      "type": "function"
    },
    {
      "inputs": [
        {
          "internalType": "uint256",
          "name": "_tokenId",
          "type": "uint256"
        }
      ],
      "name": "tokenURI",
      "outputs": [
        {
          "internalType": "string",
          "name": "",
          "type": "string"
        }
      ],
      "stateMutability": "view",
      "type": "function"
    },
    {
      "inputs": [
        {
          "internalType": "address",
          "name": "from",
          "type": "address"
        },
        {
          "internalType": "address",
          "name": "to",
          "type": "address"
        },
        {
          "internalType": "uint256",
          "name": "tokenId",
          "type": "uint256"
        }
      ],
      "name": "transferFrom",
      "outputs": [],
      "stateMutability": "nonpayable",
      "type": "function"
    }
  ],
  "bytecode": "0x60806040523480156200001157600080fd5b5060405162005b0938038062005b09833981810160405281019062000037919062000bc1565b88888888886040518060400160405280600981526020017f4368616d70696f6e7300000000000000000000000000000000000000000000008152506040518060400160405280600881526020017f4348414d50494f4e0000000000000000000000000000000000000000000000008152508160009080519060200190620000c092919062000954565b508060019080519060200190620000d992919062000954565b5050506200010b60405180606001604052806022815260200162005a7060229139620007c660201b62001c691760201c565b60005b8551811015620005825760076040518060e0016040528083815260200188848151811062000165577f4e487b7100000000000000000000000000000000000000000000000000000000600052603260045260246000fd5b60200260200101518152602001878481518110620001ac577f4e487b7100000000000000000000000000000000000000000000000000000000600052603260045260246000fd5b60200260200101518152602001858481518110620001f3577f4e487b7100000000000000000000000000000000000000000000000000000000600052603260045260246000fd5b602002602001015181526020018684815181106200023a577f4e487b7100000000000000000000000000000000000000000000000000000000600052603260045260246000fd5b6020026020010151815260200186848151811062000281577f4e487b7100000000000000000000000000000000000000000000000000000000600052603260045260246000fd5b60200260200101518152602001848481518110620002c8577f4e487b7100000000000000000000000000000000000000000000000000000000600052603260045260246000fd5b602002602001015181525090806001815401808255809150506001900390600052602060002090600702016000909190919091506000820151816000015560208201518160010190805190602001906200032492919062000954565b5060408201518160020190805190602001906200034392919062000954565b50606082015181600301556080820151816004015560a0820151816005015560c082015181600601555050600060078281548110620003ab577f4e487b7100000000000000000000000000000000000000000000000000000000600052603260045260246000fd5b90600052602060002090600702016040518060e001604052908160008201548152602001600182018054620003e09062000f9f565b80601f01602080910402602001604051908101604052809291908181526020018280546200040e9062000f9f565b80156200045f5780601f1062000433576101008083540402835291602001916200045f565b820191906000526020600020905b8154815290600101906020018083116200044157829003601f168201915b505050505081526020016002820180546200047a9062000f9f565b80601f0160208091040260200160405190810160405280929190818152602001828054620004a89062000f9f565b8015620004f95780601f10620004cd57610100808354040283529160200191620004f9565b820191906000526020600020905b815481529060010190602001808311620004db57829003601f168201915b5050505050815260200160038201548152602001600482015481526020016005820154815260200160068201548152505090506200056a60405180606001604052806025815260200162005a926025913982602001518360a0015184604001516200086960201b62001d021760201c565b506001816200057a919062000f02565b90506200010e565b506200059a60066200091560201b62001da41760201c565b5050505050620005ce60405180606001604052806028815260200162005ab760289139620007c660201b62001c691760201c565b6040518060a0016040528085815260200184815260200183815260200183815260200182815250600a60008201518160000190805190602001906200061592919062000954565b5060208201518160010190805190602001906200063492919062000954565b50604082015181600201556060820151816003015560808201518160040155905050620007b76040518060600160405280602a815260200162005adf602a9139600a6000018054620006869062000f9f565b80601f0160208091040260200160405190810160405280929190818152602001828054620006b49062000f9f565b8015620007055780601f10620006d95761010080835404028352916020019162000705565b820191906000526020600020905b815481529060010190602001808311620006e757829003601f168201915b5050505050600a60020154600a6001018054620007229062000f9f565b80601f0160208091040260200160405190810160405280929190818152602001828054620007509062000f9f565b8015620007a15780601f106200077557610100808354040283529160200191620007a1565b820191906000526020600020905b8154815290600101906020018083116200078357829003601f168201915b50505050506200086960201b62001d021760201c565b5050505050505050506200108d565b6200086681604051602401620007dd919062000d9b565b6040516020818303038152906040527f41304fac000000000000000000000000000000000000000000000000000000007bffffffffffffffffffffffffffffffffffffffffffffffffffffffff19166020820180517bffffffffffffffffffffffffffffffffffffffffffffffffffffffff83818316178352505050506200092b60201b60201c565b50565b6200090f8484848460405160240162000886949392919062000dbf565b6040516020818303038152906040527f8d142cdd000000000000000000000000000000000000000000000000000000007bffffffffffffffffffffffffffffffffffffffffffffffffffffffff19166020820180517bffffffffffffffffffffffffffffffffffffffffffffffffffffffff83818316178352505050506200092b60201b60201c565b50505050565b6001816000016000828254019250508190555050565b60008151905060006a636f6e736f6c652e6c6f679050602083016000808483855afa5050505050565b828054620009629062000f9f565b90600052602060002090601f016020900481019282620009865760008555620009d2565b82601f10620009a157805160ff1916838001178555620009d2565b82800160010185558215620009d2579182015b82811115620009d1578251825591602001919060010190620009b4565b5b509050620009e19190620009e5565b5090565b5b8082111562000a00576000816000905550600101620009e6565b5090565b600062000a1b62000a158462000e55565b62000e21565b9050808382526020820190508260005b8581101562000a5f578151850162000a44888262000b7d565b84526020840193506020830192505060018101905062000a2b565b5050509392505050565b600062000a8062000a7a8462000e84565b62000e21565b9050808382526020820190508285602086028201111562000aa057600080fd5b60005b8581101562000ad4578162000ab9888262000baa565b84526020840193506020830192505060018101905062000aa3565b5050509392505050565b600062000af562000aef8462000eb3565b62000e21565b90508281526020810184848401111562000b0e57600080fd5b62000b1b84828562000f69565b509392505050565b600082601f83011262000b3557600080fd5b815162000b4784826020860162000a04565b91505092915050565b600082601f83011262000b6257600080fd5b815162000b7484826020860162000a69565b91505092915050565b600082601f83011262000b8f57600080fd5b815162000ba184826020860162000ade565b91505092915050565b60008151905062000bbb8162001073565b92915050565b60008060008060008060008060006101208a8c03121562000be157600080fd5b60008a015167ffffffffffffffff81111562000bfc57600080fd5b62000c0a8c828d0162000b23565b99505060208a015167ffffffffffffffff81111562000c2857600080fd5b62000c368c828d0162000b23565b98505060408a015167ffffffffffffffff81111562000c5457600080fd5b62000c628c828d0162000b50565b97505060608a015167ffffffffffffffff81111562000c8057600080fd5b62000c8e8c828d0162000b50565b96505060808a015167ffffffffffffffff81111562000cac57600080fd5b62000cba8c828d0162000b50565b95505060a08a015167ffffffffffffffff81111562000cd857600080fd5b62000ce68c828d0162000b7d565b94505060c08a015167ffffffffffffffff81111562000d0457600080fd5b62000d128c828d0162000b7d565b93505060e062000d258c828d0162000baa565b92505061010062000d398c828d0162000baa565b9150509295985092959850929598565b600062000d568262000ee6565b62000d62818562000ef1565b935062000d7481856020860162000f69565b62000d7f8162001062565b840191505092915050565b62000d958162000f5f565b82525050565b6000602082019050818103600083015262000db7818462000d49565b905092915050565b6000608082019050818103600083015262000ddb818762000d49565b9050818103602083015262000df1818662000d49565b905062000e02604083018562000d8a565b818103606083015262000e16818462000d49565b905095945050505050565b6000604051905081810181811067ffffffffffffffff8211171562000e4b5762000e4a62001033565b5b8060405250919050565b600067ffffffffffffffff82111562000e735762000e7262001033565b5b602082029050602081019050919050565b600067ffffffffffffffff82111562000ea25762000ea162001033565b5b602082029050602081019050919050565b600067ffffffffffffffff82111562000ed15762000ed062001033565b5b601f19601f8301169050602081019050919050565b600081519050919050565b600082825260208201905092915050565b600062000f0f8262000f5f565b915062000f1c8362000f5f565b9250827fffffffffffffffffffffffffffffffffffffffffffffffffffffffffffffffff0382111562000f545762000f5362000fd5565b5b828201905092915050565b6000819050919050565b60005b8381101562000f8957808201518184015260208101905062000f6c565b8381111562000f99576000848401525b50505050565b6000600282049050600182168062000fb857607f821691505b6020821081141562000fcf5762000fce62001004565b5b50919050565b7f4e487b7100000000000000000000000000000000000000000000000000000000600052601160045260246000fd5b7f4e487b7100000000000000000000000000000000000000000000000000000000600052602260045260246000fd5b7f4e487b7100000000000000000000000000000000000000000000000000000000600052604160045260246000fd5b6000601f19601f8301169050919050565b6200107e8162000f5f565b81146200108a57600080fd5b50565b6149d3806200109d6000396000f3fe608060405234801561001057600080fd5b50600436106101375760003560e01c806395d89b41116100b8578063b953084e1161007c578063b953084e1461036a578063c87b56dd14610388578063c8cf27f4146103b8578063d4f24c5b146103d6578063e985e9c5146103e0578063f8b81ef71461041057610137565b806395d89b41146102bc57806398da4c95146102da578063a22cb46514610310578063a9c326791461032c578063b88d4fde1461034e57610137565b806323b872dd116100ff57806323b872dd146101f457806342842e0e146102105780636352211e1461022c57806370a082311461025c5780637df124a11461028c57610137565b806301ffc9a71461013c5780630665f9611461016c57806306fdde031461018a578063081812fc146101a8578063095ea7b3146101d8575b600080fd5b61015660048036038101906101519190613150565b61042c565b6040516101639190613f7a565b60405180910390f35b61017461050e565b6040516101819190614313565b60405180910390f35b61019261066a565b60405161019f9190613f95565b60405180910390f35b6101c260048036038101906101bd91906131a2565b6106fc565b6040516101cf9190613eba565b60405180910390f35b6101f260048036038101906101ed9190613114565b610781565b005b61020e6004803603810190610209919061300e565b610899565b005b61022a6004803603810190610225919061300e565b6108f9565b005b610246600480360381019061024191906131a2565b610919565b6040516102539190613eba565b60405180910390f35b61027660048036038101906102719190612fa9565b6109cb565b6040516102839190614357565b60405180910390f35b6102a660048036038101906102a19190612fa9565b610a83565b6040516102b39190614357565b60405180910390f35b6102c4610a9b565b6040516102d19190613f95565b60405180910390f35b6102f460048036038101906102ef91906131a2565b610b2d565b6040516103079796959493929190614372565b60405180910390f35b61032a600480360381019061032591906130d8565b610c7f565b005b610334610c95565b604051610345959493929190614064565b60405180910390f35b6103686004803603810190610363919061305d565b610dc9565b005b610372610e2b565b60405161037f9190613f58565b60405180910390f35b6103a2600480360381019061039d91906131a2565b610fe0565b6040516103af9190613f95565b60405180910390f35b6103c0611219565b6040516103cd9190614335565b60405180910390f35b6103de6113fb565b005b6103fa60048036038101906103f59190612fd2565b611786565b6040516104079190613f7a565b60405180910390f35b61042a600480360381019061042591906131a2565b61181a565b005b60007f80ac58cd000000000000000000000000000000000000000000000000000000007bffffffffffffffffffffffffffffffffffffffffffffffffffffffff1916827bffffffffffffffffffffffffffffffffffffffffffffffffffffffff191614806104f757507f5b5e139f000000000000000000000000000000000000000000000000000000007bffffffffffffffffffffffffffffffffffffffffffffffffffffffff1916827bffffffffffffffffffffffffffffffffffffffffffffffffffffffff1916145b80610507575061050682611dba565b5b9050919050565b610516612dc9565b600a6040518060a0016040529081600082018054610533906146d1565b80601f016020809104026020016040519081016040528092919081815260200182805461055f906146d1565b80156105ac5780601f10610581576101008083540402835291602001916105ac565b820191906000526020600020905b81548152906001019060200180831161058f57829003601f168201915b505050505081526020016001820180546105c5906146d1565b80601f01602080910402602001604051908101604052809291908181526020018280546105f1906146d1565b801561063e5780601f106106135761010080835404028352916020019161063e565b820191906000526020600020905b81548152906001019060200180831161062157829003601f168201915b505050505081526020016002820154815260200160038201548152602001600482015481525050905090565b606060008054610679906146d1565b80601f01602080910402602001604051908101604052809291908181526020018280546106a5906146d1565b80156106f25780601f106106c7576101008083540402835291602001916106f2565b820191906000526020600020905b8154815290600101906020018083116106d557829003601f168201915b5050505050905090565b600061070782611e24565b610746576040517f08c379a000000000000000000000000000000000000000000000000000000000815260040161073d90614293565b60405180910390fd5b6004600083815260200190815260200160002060009054906101000a900473ffffffffffffffffffffffffffffffffffffffff169050919050565b600061078c82610919565b90508073ffffffffffffffffffffffffffffffffffffffff168373ffffffffffffffffffffffffffffffffffffffff1614156107fd576040517f08c379a00000000000000000000000000000000000000000000000000000000081526004016107f4906142d3565b60405180910390fd5b8073ffffffffffffffffffffffffffffffffffffffff1661081c611e90565b73ffffffffffffffffffffffffffffffffffffffff16148061084b575061084a81610845611e90565b611786565b5b61088a576040517f08c379a0000000000000000000000000000000000000000000000000000000008152600401610881906141f3565b60405180910390fd5b6108948383611e98565b505050565b6108aa6108a4611e90565b82611f51565b6108e9576040517f08c379a00000000000000000000000000000000000000000000000000000000081526004016108e0906142f3565b60405180910390fd5b6108f483838361202f565b505050565b61091483838360405180602001604052806000815250610dc9565b505050565b6000806002600084815260200190815260200160002060009054906101000a900473ffffffffffffffffffffffffffffffffffffffff169050600073ffffffffffffffffffffffffffffffffffffffff168173ffffffffffffffffffffffffffffffffffffffff1614156109c2576040517f08c379a00000000000000000000000000000000000000000000000000000000081526004016109b990614233565b60405180910390fd5b80915050919050565b60008073ffffffffffffffffffffffffffffffffffffffff168273ffffffffffffffffffffffffffffffffffffffff161415610a3c576040517f08c379a0000000000000000000000000000000000000000000000000000000008152600401610a3390614213565b60405180910390fd5b600360008373ffffffffffffffffffffffffffffffffffffffff1673ffffffffffffffffffffffffffffffffffffffff168152602001908152602001600020549050919050565b60096020528060005260406000206000915090505481565b606060018054610aaa906146d1565b80601f0160208091040260200160405190810160405280929190818152602001828054610ad6906146d1565b8015610b235780601f10610af857610100808354040283529160200191610b23565b820191906000526020600020905b815481529060010190602001808311610b0657829003601f168201915b5050505050905090565b6008602052806000526040600020600091509050806000015490806001018054610b56906146d1565b80601f0160208091040260200160405190810160405280929190818152602001828054610b82906146d1565b8015610bcf5780601f10610ba457610100808354040283529160200191610bcf565b820191906000526020600020905b815481529060010190602001808311610bb257829003601f168201915b505050505090806002018054610be4906146d1565b80601f0160208091040260200160405190810160405280929190818152602001828054610c10906146d1565b8015610c5d5780601f10610c3257610100808354040283529160200191610c5d565b820191906000526020600020905b815481529060010190602001808311610c4057829003601f168201915b5050505050908060030154908060040154908060050154908060060154905087565b610c91610c8a611e90565b838361228b565b5050565b600a806000018054610ca6906146d1565b80601f0160208091040260200160405190810160405280929190818152602001828054610cd2906146d1565b8015610d1f5780601f10610cf457610100808354040283529160200191610d1f565b820191906000526020600020905b815481529060010190602001808311610d0257829003601f168201915b505050505090806001018054610d34906146d1565b80601f0160208091040260200160405190810160405280929190818152602001828054610d60906146d1565b8015610dad5780601f10610d8257610100808354040283529160200191610dad565b820191906000526020600020905b815481529060010190602001808311610d9057829003601f168201915b5050505050908060020154908060030154908060040154905085565b610dda610dd4611e90565b83611f51565b610e19576040517f08c379a0000000000000000000000000000000000000000000000000000000008152600401610e10906142f3565b60405180910390fd5b610e25848484846123f8565b50505050565b60606007805480602002602001604051908101604052809291908181526020016000905b82821015610fd757838290600052602060002090600702016040518060e001604052908160008201548152602001600182018054610e8c906146d1565b80601f0160208091040260200160405190810160405280929190818152602001828054610eb8906146d1565b8015610f055780601f10610eda57610100808354040283529160200191610f05565b820191906000526020600020905b815481529060010190602001808311610ee857829003601f168201915b50505050508152602001600282018054610f1e906146d1565b80601f0160208091040260200160405190810160405280929190818152602001828054610f4a906146d1565b8015610f975780601f10610f6c57610100808354040283529160200191610f97565b820191906000526020600020905b815481529060010190602001808311610f7a57829003601f168201915b5050505050815260200160038201548152602001600482015481526020016005820154815260200160068201548152505081526020019060010190610e4f565b50505050905090565b60606000600860008481526020019081526020016000206040518060e00160405290816000820154815260200160018201805461101c906146d1565b80601f0160208091040260200160405190810160405280929190818152602001828054611048906146d1565b80156110955780601f1061106a57610100808354040283529160200191611095565b820191906000526020600020905b81548152906001019060200180831161107857829003601f168201915b505050505081526020016002820180546110ae906146d1565b80601f01602080910402602001604051908101604052809291908181526020018280546110da906146d1565b80156111275780601f106110fc57610100808354040283529160200191611127565b820191906000526020600020905b81548152906001019060200180831161110a57829003601f168201915b50505050508152602001600382015481526020016004820154815260200160058201548152602001600682015481525050905060006111698260800151612454565b9050600061117a8360a00151612454565b9050600061118b8460c00151612454565b9050600061119c8560600151612454565b905060006111e486602001516111b18a612454565b8860400151888888886040516020016111d09796959493929190613ddb565b604051602081830303815290604052612601565b90506000816040516020016111f99190613e98565b604051602081830303815290604052905080975050505050505050919050565b611221612df8565b6000600960003373ffffffffffffffffffffffffffffffffffffffff1673ffffffffffffffffffffffffffffffffffffffff16815260200190815260200160002054905060008111156113ea57600860008281526020019081526020016000206040518060e0016040529081600082015481526020016001820180546112a6906146d1565b80601f01602080910402602001604051908101604052809291908181526020018280546112d2906146d1565b801561131f5780601f106112f45761010080835404028352916020019161131f565b820191906000526020600020905b81548152906001019060200180831161130257829003601f168201915b50505050508152602001600282018054611338906146d1565b80601f0160208091040260200160405190810160405280929190818152602001828054611364906146d1565b80156113b15780601f10611386576101008083540402835291602001916113b1565b820191906000526020600020905b81548152906001019060200180831161139457829003601f168201915b505050505081526020016003820154815260200160048201548152602001600582015481526020016006820154815250509150506113f8565b6113f2612df8565b80925050505b90565b6000600960003373ffffffffffffffffffffffffffffffffffffffff1673ffffffffffffffffffffffffffffffffffffffff168152602001908152602001600020549050600060086000838152602001908152602001600020905061150e6040518060600160405280603c8152602001614962603c9139826001018054611481906146d1565b80601f01602080910402602001604051908101604052809291908181526020018280546114ad906146d1565b80156114fa5780601f106114cf576101008083540402835291602001916114fa565b820191906000526020600020905b8154815290600101906020018083116114dd57829003601f168201915b5050505050836004015484600601546127bf565b6115e66040518060400160405280601b81526020017f426f73732025732068617320257320485020616e642025732041440000000000815250600a6000018054611557906146d1565b80601f0160208091040260200160405190810160405280929190818152602001828054611583906146d1565b80156115d05780601f106115a5576101008083540402835291602001916115d0565b820191906000526020600020905b8154815290600101906020018083116115b357829003601f168201915b5050505050600a60020154600a600401546127bf565b600081600401541161162d576040517f08c379a000000000000000000000000000000000000000000000000000000000815260040161162490614253565b60405180910390fd5b6000600a6002015411611675576040517f08c379a000000000000000000000000000000000000000000000000000000000815260040161166c90614153565b60405180910390fd5b8060060154600a600201541015611696576000600a600201819055506116b5565b8060060154600a600201546116ab91906145e7565b600a600201819055505b600a60040154816004015410156116d557600081600401819055506116f3565b600a6004015481600401546116ea91906145e7565b81600401819055505b61171a6040518060600160405280602581526020016148a760259139600a60020154612861565b61174060405180606001604052806028815260200161490c602891398260040154612861565b7f838ab28464562786a6c4ab2311964b82fa60bd9b14aa7e856af1f3f18d41a414600a60020154826004015460405161177a9291906143ef565b60405180910390a15050565b6000600560008473ffffffffffffffffffffffffffffffffffffffff1673ffffffffffffffffffffffffffffffffffffffff16815260200190815260200160002060008373ffffffffffffffffffffffffffffffffffffffff1673ffffffffffffffffffffffffffffffffffffffff16815260200190815260200160002060009054906101000a900460ff16905092915050565b600061182660066128fd565b9050611832338261290b565b6040518060e001604052808381526020016007848154811061187d577f4e487b7100000000000000000000000000000000000000000000000000000000600052603260045260246000fd5b90600052602060002090600702016001018054611899906146d1565b80601f01602080910402602001604051908101604052809291908181526020018280546118c5906146d1565b80156119125780601f106118e757610100808354040283529160200191611912565b820191906000526020600020905b8154815290600101906020018083116118f557829003601f168201915b5050505050815260200160078481548110611956577f4e487b7100000000000000000000000000000000000000000000000000000000600052603260045260246000fd5b90600052602060002090600702016002018054611972906146d1565b80601f016020809104026020016040519081016040528092919081815260200182805461199e906146d1565b80156119eb5780601f106119c0576101008083540402835291602001916119eb565b820191906000526020600020905b8154815290600101906020018083116119ce57829003601f168201915b5050505050815260200160078481548110611a2f577f4e487b7100000000000000000000000000000000000000000000000000000000600052603260045260246000fd5b906000526020600020906007020160030154815260200160078481548110611a80577f4e487b7100000000000000000000000000000000000000000000000000000000600052603260045260246000fd5b906000526020600020906007020160040154815260200160078481548110611ad1577f4e487b7100000000000000000000000000000000000000000000000000000000600052603260045260246000fd5b906000526020600020906007020160050154815260200160078481548110611b22577f4e487b7100000000000000000000000000000000000000000000000000000000600052603260045260246000fd5b90600052602060002090600702016006015481525060086000838152602001908152602001600020600082015181600001556020820151816001019080519060200190611b70929190612e35565b506040820151816002019080519060200190611b8d929190612e35565b50606082015181600301556080820151816004015560a0820151816005015560c0820151816006015590505080600960003373ffffffffffffffffffffffffffffffffffffffff1673ffffffffffffffffffffffffffffffffffffffff16815260200190815260200160002081905550611c206040518060600160405280602e8152602001614934602e91398284612929565b611c2a6006611da4565b7f4bc303fd457a97b4691b9af582ce71868a3d258638c8d4f8c60988a0f0bfb8cd338284604051611c5d93929190613f21565b60405180910390a15050565b611cff81604051602401611c7d9190613f95565b6040516020818303038152906040527f41304fac000000000000000000000000000000000000000000000000000000007bffffffffffffffffffffffffffffffffffffffffffffffffffffffff19166020820180517bffffffffffffffffffffffffffffffffffffffffffffffffffffffff83818316178352505050506129c8565b50565b611d9e84848484604051602401611d1c9493929190613fb7565b6040516020818303038152906040527f8d142cdd000000000000000000000000000000000000000000000000000000007bffffffffffffffffffffffffffffffffffffffffffffffffffffffff19166020820180517bffffffffffffffffffffffffffffffffffffffffffffffffffffffff83818316178352505050506129c8565b50505050565b6001816000016000828254019250508190555050565b60007f01ffc9a7000000000000000000000000000000000000000000000000000000007bffffffffffffffffffffffffffffffffffffffffffffffffffffffff1916827bffffffffffffffffffffffffffffffffffffffffffffffffffffffff1916149050919050565b60008073ffffffffffffffffffffffffffffffffffffffff166002600084815260200190815260200160002060009054906101000a900473ffffffffffffffffffffffffffffffffffffffff1673ffffffffffffffffffffffffffffffffffffffff1614159050919050565b600033905090565b816004600083815260200190815260200160002060006101000a81548173ffffffffffffffffffffffffffffffffffffffff021916908373ffffffffffffffffffffffffffffffffffffffff160217905550808273ffffffffffffffffffffffffffffffffffffffff16611f0b83610919565b73ffffffffffffffffffffffffffffffffffffffff167f8c5be1e5ebec7d5bd14f71427d1e84f3dd0314c0f7b2291e5b200ac8c7c3b92560405160405180910390a45050565b6000611f5c82611e24565b611f9b576040517f08c379a0000000000000000000000000000000000000000000000000000000008152600401611f92906141d3565b60405180910390fd5b6000611fa683610919565b90508073ffffffffffffffffffffffffffffffffffffffff168473ffffffffffffffffffffffffffffffffffffffff16148061201557508373ffffffffffffffffffffffffffffffffffffffff16611ffd846106fc565b73ffffffffffffffffffffffffffffffffffffffff16145b8061202657506120258185611786565b5b91505092915050565b8273ffffffffffffffffffffffffffffffffffffffff1661204f82610919565b73ffffffffffffffffffffffffffffffffffffffff16146120a5576040517f08c379a000000000000000000000000000000000000000000000000000000000815260040161209c906142b3565b60405180910390fd5b600073ffffffffffffffffffffffffffffffffffffffff168273ffffffffffffffffffffffffffffffffffffffff161415612115576040517f08c379a000000000000000000000000000000000000000000000000000000000815260040161210c90614193565b60405180910390fd5b6121208383836129f1565b61212b600082611e98565b6001600360008573ffffffffffffffffffffffffffffffffffffffff1673ffffffffffffffffffffffffffffffffffffffff168152602001908152602001600020600082825461217b91906145e7565b925050819055506001600360008473ffffffffffffffffffffffffffffffffffffffff1673ffffffffffffffffffffffffffffffffffffffff16815260200190815260200160002060008282546121d29190614506565b92505081905550816002600083815260200190815260200160002060006101000a81548173ffffffffffffffffffffffffffffffffffffffff021916908373ffffffffffffffffffffffffffffffffffffffff160217905550808273ffffffffffffffffffffffffffffffffffffffff168473ffffffffffffffffffffffffffffffffffffffff167fddf252ad1be2c89b69c2b068fc378daa952ba7f163c4a11628f55a4df523b3ef60405160405180910390a4505050565b8173ffffffffffffffffffffffffffffffffffffffff168373ffffffffffffffffffffffffffffffffffffffff1614156122fa576040517f08c379a00000000000000000000000000000000000000000000000000000000081526004016122f1906141b3565b60405180910390fd5b80600560008573ffffffffffffffffffffffffffffffffffffffff1673ffffffffffffffffffffffffffffffffffffffff16815260200190815260200160002060008473ffffffffffffffffffffffffffffffffffffffff1673ffffffffffffffffffffffffffffffffffffffff16815260200190815260200160002060006101000a81548160ff0219169083151502179055508173ffffffffffffffffffffffffffffffffffffffff168373ffffffffffffffffffffffffffffffffffffffff167f17307eab39ab6107e8899845ad3d59bd9653f200f220920489ca2b5937696c31836040516123eb9190613f7a565b60405180910390a3505050565b61240384848461202f565b61240f848484846129f6565b61244e576040517f08c379a000000000000000000000000000000000000000000000000000000000815260040161244590614133565b60405180910390fd5b50505050565b6060600082141561249c576040518060400160405280600181526020017f300000000000000000000000000000000000000000000000000000000000000081525090506125fc565b600082905060005b600082146124ce5780806124b790614703565b915050600a826124c7919061455c565b91506124a4565b60008167ffffffffffffffff811115612510577f4e487b7100000000000000000000000000000000000000000000000000000000600052604160045260246000fd5b6040519080825280601f01601f1916602001820160405280156125425781602001600182028036833780820191505090505b5090505b600085146125f55760018261255b91906145e7565b9150600a8561256a919061474c565b60306125769190614506565b60f81b8183815181106125b2577f4e487b7100000000000000000000000000000000000000000000000000000000600052603260045260246000fd5b60200101907effffffffffffffffffffffffffffffffffffffffffffffffffffffffffffff1916908160001a905350600a856125ee919061455c565b9450612546565b8093505050505b919050565b6060600082519050600081141561262a57604051806020016040528060008152509150506127ba565b6000600360028361263b9190614506565b612645919061455c565b6004612651919061458d565b905060006020826126629190614506565b67ffffffffffffffff8111156126a1577f4e487b7100000000000000000000000000000000000000000000000000000000600052604160045260246000fd5b6040519080825280601f01601f1916602001820160405280156126d35781602001600182028036833780820191505090505b50905060006040518060600160405280604081526020016148cc604091399050600181016020830160005b868110156127775760038101905062ffffff818a015116603f8160121c168401518060081b905060ff603f83600c1c1686015116810190508060081b905060ff603f8360061c1686015116810190508060081b905060ff603f831686015116810190508060e01b905080845260048401935050506126fe565b50600386066001811461279157600281146127a1576127ac565b613d3d60f01b60028303526127ac565b603d60f81b60018303525b508484525050819450505050505b919050565b61285b848484846040516024016127d99493929190614011565b6040516020818303038152906040527fd5cf17d0000000000000000000000000000000000000000000000000000000007bffffffffffffffffffffffffffffffffffffffffffffffffffffffff19166020820180517bffffffffffffffffffffffffffffffffffffffffffffffffffffffff83818316178352505050506129c8565b50505050565b6128f982826040516024016128779291906140c5565b6040516020818303038152906040527f9710a9d0000000000000000000000000000000000000000000000000000000007bffffffffffffffffffffffffffffffffffffffffffffffffffffffff19166020820180517bffffffffffffffffffffffffffffffffffffffffffffffffffffffff83818316178352505050506129c8565b5050565b600081600001549050919050565b612925828260405180602001604052806000815250612b8d565b5050565b6129c3838383604051602401612941939291906140f5565b6040516020818303038152906040527f969cdd03000000000000000000000000000000000000000000000000000000007bffffffffffffffffffffffffffffffffffffffffffffffffffffffff19166020820180517bffffffffffffffffffffffffffffffffffffffffffffffffffffffff83818316178352505050506129c8565b505050565b60008151905060006a636f6e736f6c652e6c6f679050602083016000808483855afa5050505050565b505050565b6000612a178473ffffffffffffffffffffffffffffffffffffffff16612be8565b15612b80578373ffffffffffffffffffffffffffffffffffffffff1663150b7a02612a40611e90565b8786866040518563ffffffff1660e01b8152600401612a629493929190613ed5565b602060405180830381600087803b158015612a7c57600080fd5b505af1925050508015612aad57506040513d601f19601f82011682018060405250810190612aaa9190613179565b60015b612b30573d8060008114612add576040519150601f19603f3d011682016040523d82523d6000602084013e612ae2565b606091505b50600081511415612b28576040517f08c379a0000000000000000000000000000000000000000000000000000000008152600401612b1f90614133565b60405180910390fd5b805181602001fd5b63150b7a0260e01b7bffffffffffffffffffffffffffffffffffffffffffffffffffffffff1916817bffffffffffffffffffffffffffffffffffffffffffffffffffffffff191614915050612b85565b600190505b949350505050565b612b978383612bfb565b612ba460008484846129f6565b612be3576040517f08c379a0000000000000000000000000000000000000000000000000000000008152600401612bda90614133565b60405180910390fd5b505050565b600080823b905060008111915050919050565b600073ffffffffffffffffffffffffffffffffffffffff168273ffffffffffffffffffffffffffffffffffffffff161415612c6b576040517f08c379a0000000000000000000000000000000000000000000000000000000008152600401612c6290614273565b60405180910390fd5b612c7481611e24565b15612cb4576040517f08c379a0000000000000000000000000000000000000000000000000000000008152600401612cab90614173565b60405180910390fd5b612cc0600083836129f1565b6001600360008473ffffffffffffffffffffffffffffffffffffffff1673ffffffffffffffffffffffffffffffffffffffff1681526020019081526020016000206000828254612d109190614506565b92505081905550816002600083815260200190815260200160002060006101000a81548173ffffffffffffffffffffffffffffffffffffffff021916908373ffffffffffffffffffffffffffffffffffffffff160217905550808273ffffffffffffffffffffffffffffffffffffffff16600073ffffffffffffffffffffffffffffffffffffffff167fddf252ad1be2c89b69c2b068fc378daa952ba7f163c4a11628f55a4df523b3ef60405160405180910390a45050565b6040518060a0016040528060608152602001606081526020016000815260200160008152602001600081525090565b6040518060e00160405280600081526020016060815260200160608152602001600081526020016000815260200160008152602001600081525090565b828054612e41906146d1565b90600052602060002090601f016020900481019282612e635760008555612eaa565b82601f10612e7c57805160ff1916838001178555612eaa565b82800160010185558215612eaa579182015b82811115612ea9578251825591602001919060010190612e8e565b5b509050612eb79190612ebb565b5090565b5b80821115612ed4576000816000905550600101612ebc565b5090565b6000612eeb612ee684614449565b614418565b905082815260208101848484011115612f0357600080fd5b612f0e84828561468f565b509392505050565b600081359050612f258161484a565b92915050565b600081359050612f3a81614861565b92915050565b600081359050612f4f81614878565b92915050565b600081519050612f6481614878565b92915050565b600082601f830112612f7b57600080fd5b8135612f8b848260208601612ed8565b91505092915050565b600081359050612fa38161488f565b92915050565b600060208284031215612fbb57600080fd5b6000612fc984828501612f16565b91505092915050565b60008060408385031215612fe557600080fd5b6000612ff385828601612f16565b925050602061300485828601612f16565b9150509250929050565b60008060006060848603121561302357600080fd5b600061303186828701612f16565b935050602061304286828701612f16565b925050604061305386828701612f94565b9150509250925092565b6000806000806080858703121561307357600080fd5b600061308187828801612f16565b945050602061309287828801612f16565b93505060406130a387828801612f94565b925050606085013567ffffffffffffffff8111156130c057600080fd5b6130cc87828801612f6a565b91505092959194509250565b600080604083850312156130eb57600080fd5b60006130f985828601612f16565b925050602061310a85828601612f2b565b9150509250929050565b6000806040838503121561312757600080fd5b600061313585828601612f16565b925050602061314685828601612f94565b9150509250929050565b60006020828403121561316257600080fd5b600061317084828501612f40565b91505092915050565b60006020828403121561318b57600080fd5b600061319984828501612f55565b91505092915050565b6000602082840312156131b457600080fd5b60006131c284828501612f94565b91505092915050565b60006131d78383613c77565b905092915050565b6131e88161461b565b82525050565b60006131f982614489565b61320381856144b7565b93508360208202850161321585614479565b8060005b85811015613251578484038952815161323285826131cb565b945061323d836144aa565b925060208a01995050600181019050613219565b50829750879550505050505092915050565b61326c8161462d565b82525050565b600061327d82614494565b61328781856144c8565b935061329781856020860161469e565b6132a081614839565b840191505092915050565b60006132b68261449f565b6132c081856144d9565b93506132d081856020860161469e565b6132d981614839565b840191505092915050565b60006132ef8261449f565b6132f981856144ea565b935061330981856020860161469e565b61331281614839565b840191505092915050565b60006133288261449f565b61333281856144fb565b935061334281856020860161469e565b80840191505092915050565b600061335b600b836144fb565b91507f202d2d204e465420233a200000000000000000000000000000000000000000006000830152600b82019050919050565b600061339b6032836144ea565b91507f4552433732313a207472616e7366657220746f206e6f6e20455243373231526560008301527f63656976657220696d706c656d656e74657200000000000000000000000000006020830152604082019050919050565b60006134016028836144ea565b91507f4572726f723a20626f7373206d757374206861766520485020746f206174746160008301527f636b20626f73732e0000000000000000000000000000000000000000000000006020830152604082019050919050565b6000613467601c836144ea565b91507f4552433732313a20746f6b656e20616c7265616479206d696e746564000000006000830152602082019050919050565b60006134a7600e836144fb565b91507f2c20226d61785f76616c7565223a0000000000000000000000000000000000006000830152600e82019050919050565b60006134e76027836144fb565b91507f7d2c207b202274726169745f74797065223a2022446566656e6365222c20227660008301527f616c7565223a20000000000000000000000000000000000000000000000000006020830152602782019050919050565b600061354d6024836144ea565b91507f4552433732313a207472616e7366657220746f20746865207a65726f2061646460008301527f72657373000000000000000000000000000000000000000000000000000000006020830152604082019050919050565b60006135b36019836144ea565b91507f4552433732313a20617070726f766520746f2063616c6c6572000000000000006000830152602082019050919050565b60006135f3602c836144ea565b91507f4552433732313a206f70657261746f7220717565727920666f72206e6f6e657860008301527f697374656e7420746f6b656e00000000000000000000000000000000000000006020830152604082019050919050565b60006136596038836144ea565b91507f4552433732313a20617070726f76652063616c6c6572206973206e6f74206f7760008301527f6e6572206e6f7220617070726f76656420666f7220616c6c00000000000000006020830152604082019050919050565b60006136bf602a836144ea565b91507f4552433732313a2062616c616e636520717565727920666f7220746865207a6560008301527f726f2061646472657373000000000000000000000000000000000000000000006020830152604082019050919050565b60006137256029836144ea565b91507f4552433732313a206f776e657220717565727920666f72206e6f6e657869737460008301527f656e7420746f6b656e00000000000000000000000000000000000000000000006020830152604082019050919050565b600061378b6062836144fb565b91507f222c20226465736372697074696f6e223a20225468697320697320616e204e4660008301527f542074686174206c6574732070656f706c6520706c617920696e20746865206760208301527f616d65204d657461766572736520536c6179657221222c2022696d616765223a60408301527f20220000000000000000000000000000000000000000000000000000000000006060830152606282019050919050565b600061383d602d836144ea565b91507f4572726f723a20636861726163746572206d757374206861766520485020746f60008301527f2061747461636b20626f73732e000000000000000000000000000000000000006020830152604082019050919050565b60006138a36004836144fb565b91507f7d205d7d000000000000000000000000000000000000000000000000000000006000830152600482019050919050565b60006138e36020836144ea565b91507f4552433732313a206d696e7420746f20746865207a65726f20616464726573736000830152602082019050919050565b6000613923602c836144ea565b91507f4552433732313a20617070726f76656420717565727920666f72206e6f6e657860008301527f697374656e7420746f6b656e00000000000000000000000000000000000000006020830152604082019050919050565b60006139896029836144ea565b91507f4552433732313a207472616e73666572206f6620746f6b656e2074686174206960008301527f73206e6f74206f776e00000000000000000000000000000000000000000000006020830152604082019050919050565b60006139ef600a836144fb565b91507f7b226e616d65223a2022000000000000000000000000000000000000000000006000830152600a82019050919050565b6000613a2f6021836144ea565b91507f4552433732313a20617070726f76616c20746f2063757272656e74206f776e6560008301527f72000000000000000000000000000000000000000000000000000000000000006020830152604082019050919050565b6000613a95601d836144fb565b91507f646174613a6170706c69636174696f6e2f6a736f6e3b6261736536342c0000006000830152601d82019050919050565b6000613ad56031836144ea565b91507f4552433732313a207472616e736665722063616c6c6572206973206e6f74206f60008301527f776e6572206e6f7220617070726f7665640000000000000000000000000000006020830152604082019050919050565b6000613b3b603d836144fb565b91507f222c202261747472696275746573223a205b207b202274726169745f7479706560008301527f223a20224865616c746820506f696e7473222c202276616c7565223a200000006020830152603d82019050919050565b6000613ba1602d836144fb565b91507f7d2c207b202274726169745f74797065223a202241747461636b2044616d616760008301527f65222c202276616c7565223a20000000000000000000000000000000000000006020830152602d82019050919050565b600060a0830160008301518482036000860152613c1782826132ab565b91505060208301518482036020860152613c3182826132ab565b9150506040830151613c466040860182613dbd565b506060830151613c596060860182613dbd565b506080830151613c6c6080860182613dbd565b508091505092915050565b600060e083016000830151613c8f6000860182613dbd565b5060208301518482036020860152613ca782826132ab565b91505060408301518482036040860152613cc182826132ab565b9150506060830151613cd66060860182613dbd565b506080830151613ce96080860182613dbd565b5060a0830151613cfc60a0860182613dbd565b5060c0830151613d0f60c0860182613dbd565b508091505092915050565b600060e083016000830151613d326000860182613dbd565b5060208301518482036020860152613d4a82826132ab565b91505060408301518482036040860152613d6482826132ab565b9150506060830151613d796060860182613dbd565b506080830151613d8c6080860182613dbd565b5060a0830151613d9f60a0860182613dbd565b5060c0830151613db260c0860182613dbd565b508091505092915050565b613dc681614685565b82525050565b613dd581614685565b82525050565b6000613de6826139e2565b9150613df2828a61331d565b9150613dfd8261334e565b9150613e09828961331d565b9150613e148261377e565b9150613e20828861331d565b9150613e2b82613b2e565b9150613e37828761331d565b9150613e428261349a565b9150613e4e828661331d565b9150613e5982613b94565b9150613e65828561331d565b9150613e70826134da565b9150613e7c828461331d565b9150613e8782613896565b915081905098975050505050505050565b6000613ea382613a88565b9150613eaf828461331d565b915081905092915050565b6000602082019050613ecf60008301846131df565b92915050565b6000608082019050613eea60008301876131df565b613ef760208301866131df565b613f046040830185613dcc565b8181036060830152613f168184613272565b905095945050505050565b6000606082019050613f3660008301866131df565b613f436020830185613dcc565b613f506040830184613dcc565b949350505050565b60006020820190508181036000830152613f7281846131ee565b905092915050565b6000602082019050613f8f6000830184613263565b92915050565b60006020820190508181036000830152613faf81846132e4565b905092915050565b60006080820190508181036000830152613fd181876132e4565b90508181036020830152613fe581866132e4565b9050613ff46040830185613dcc565b818103606083015261400681846132e4565b905095945050505050565b6000608082019050818103600083015261402b81876132e4565b9050818103602083015261403f81866132e4565b905061404e6040830185613dcc565b61405b6060830184613dcc565b95945050505050565b600060a082019050818103600083015261407e81886132e4565b9050818103602083015261409281876132e4565b90506140a16040830186613dcc565b6140ae6060830185613dcc565b6140bb6080830184613dcc565b9695505050505050565b600060408201905081810360008301526140df81856132e4565b90506140ee6020830184613dcc565b9392505050565b6000606082019050818103600083015261410f81866132e4565b905061411e6020830185613dcc565b61412b6040830184613dcc565b949350505050565b6000602082019050818103600083015261414c8161338e565b9050919050565b6000602082019050818103600083015261416c816133f4565b9050919050565b6000602082019050818103600083015261418c8161345a565b9050919050565b600060208201905081810360008301526141ac81613540565b9050919050565b600060208201905081810360008301526141cc816135a6565b9050919050565b600060208201905081810360008301526141ec816135e6565b9050919050565b6000602082019050818103600083015261420c8161364c565b9050919050565b6000602082019050818103600083015261422c816136b2565b9050919050565b6000602082019050818103600083015261424c81613718565b9050919050565b6000602082019050818103600083015261426c81613830565b9050919050565b6000602082019050818103600083015261428c816138d6565b9050919050565b600060208201905081810360008301526142ac81613916565b9050919050565b600060208201905081810360008301526142cc8161397c565b9050919050565b600060208201905081810360008301526142ec81613a22565b9050919050565b6000602082019050818103600083015261430c81613ac8565b9050919050565b6000602082019050818103600083015261432d8184613bfa565b905092915050565b6000602082019050818103600083015261434f8184613d1a565b905092915050565b600060208201905061436c6000830184613dcc565b92915050565b600060e082019050614387600083018a613dcc565b818103602083015261439981896132e4565b905081810360408301526143ad81886132e4565b90506143bc6060830187613dcc565b6143c96080830186613dcc565b6143d660a0830185613dcc565b6143e360c0830184613dcc565b98975050505050505050565b60006040820190506144046000830185613dcc565b6144116020830184613dcc565b9392505050565b6000604051905081810181811067ffffffffffffffff8211171561443f5761443e61480a565b5b8060405250919050565b600067ffffffffffffffff8211156144645761446361480a565b5b601f19601f8301169050602081019050919050565b6000819050602082019050919050565b600081519050919050565b600081519050919050565b600081519050919050565b6000602082019050919050565b600082825260208201905092915050565b600082825260208201905092915050565b600082825260208201905092915050565b600082825260208201905092915050565b600081905092915050565b600061451182614685565b915061451c83614685565b9250827fffffffffffffffffffffffffffffffffffffffffffffffffffffffffffffffff038211156145515761455061477d565b5b828201905092915050565b600061456782614685565b915061457283614685565b925082614582576145816147ac565b5b828204905092915050565b600061459882614685565b91506145a383614685565b9250817fffffffffffffffffffffffffffffffffffffffffffffffffffffffffffffffff04831182151516156145dc576145db61477d565b5b828202905092915050565b60006145f282614685565b91506145fd83614685565b9250828210156146105761460f61477d565b5b828203905092915050565b600061462682614665565b9050919050565b60008115159050919050565b60007fffffffff0000000000000000000000000000000000000000000000000000000082169050919050565b600073ffffffffffffffffffffffffffffffffffffffff82169050919050565b6000819050919050565b82818337600083830152505050565b60005b838110156146bc5780820151818401526020810190506146a1565b838111156146cb576000848401525b50505050565b600060028204905060018216806146e957607f821691505b602082108114156146fd576146fc6147db565b5b50919050565b600061470e82614685565b91507fffffffffffffffffffffffffffffffffffffffffffffffffffffffffffffffff8214156147415761474061477d565b5b600182019050919050565b600061475782614685565b915061476283614685565b925082614772576147716147ac565b5b828206905092915050565b7f4e487b7100000000000000000000000000000000000000000000000000000000600052601160045260246000fd5b7f4e487b7100000000000000000000000000000000000000000000000000000000600052601260045260246000fd5b7f4e487b7100000000000000000000000000000000000000000000000000000000600052602260045260246000fd5b7f4e487b7100000000000000000000000000000000000000000000000000000000600052604160045260246000fd5b6000601f19601f8301169050919050565b6148538161461b565b811461485e57600080fd5b50565b61486a8161462d565b811461487557600080fd5b50565b61488181614639565b811461488c57600080fd5b50565b61489881614685565b81146148a357600080fd5b5056fe506c617965722061747461636b656420626f73732e204e657720626f73732068703a2025734142434445464748494a4b4c4d4e4f505152535455565758595a6162636465666768696a6b6c6d6e6f707172737475767778797a303132333435363738392b2f426f73732061747461636b656420706c617965722e204e657720706c617965722068703a2025730a4d696e746564204e465420772f20746f6b656e496420257320616e6420636861726163746572496e6465782025730a506c6179657220772f206368617261637465722025732061626f757420746f2061747461636b2e2048617320257320485020616e64202573204144a26469706673582212202776a6db1753212a20e89fb73716eb967135093c1845b400bb51e5ef48f9c83c64736f6c634300080000336865792074686973206973206d7920657069632067616d6520636f6e747261637421446f6e6520696e697469616c697a696e6720257320772f2048502025732c20696d672025736865792074686973206973206d7920657069632067616d6520636f6e7472616374206c6f67696321446f6e6520696e697469616c697a696e6720626f737320257320772f2048502025732c20696d67202573",
  "linkReferences": {},
  "deployedLinkReferences": {}
}